:100000000C943B000C9458000C9458000C9458002D
:100010000C9458000C9458000C9458000C94580000
:100020000C9458000C9458000C9458000C945800F0
:100030000C9458000C9458000C9458000C945800E0
:100040000C9458000C9458000C9458000C945800D0
:100050000C9458000C9458000C9458000C945800C0
:100060000C9458000C9458009200950098009B0046
:100070009E00A100A40011241FBECFEFD8E0DEBF78
:10008000CDBF12E0A0E0B1E0EEE3F4E002C00590E5
:100090000D92A232B107D9F722E0A2E2B2E001C08C
:1000A0001D92AD32B207E1F70E940C020C941D02C2
:1000B0000C9400008FEF84B98AB98BB915B80895F4
:1000C000299A85E08A95F1F70000299808952A9ADF
:1000D00087EF9AE20197F1F700C000002A9808958F
:1000E000E5E2F2E020E030E090E061E0AC01022ED9
:1000F00002C0559547950A94E2F740FF02C060831D
:1001000001C010822F5F3F4F31962830310571F7C3
:10011000089590E087309105C8F4FC01EC5CFF4F36
:100120000C9417028EE78BB908958DE78BB908956B
:100130008BE78BB9089587E78BB908958FE68BB964
:1001400008958FE58BB908958FE38BB908957F9259
:100150008F929F92AF92BF92CF92DF92EF92FF92D7
:100160000F931F93CF93DF9380910001811145C0BE
:1001700059C0F60180810E947000C5E2D2E08991E9
:10018000882321F0289A0E94600003C028980E94CA
:100190006000C017D10799F7FA94F110EACF809167
:1001A00022020E9489000E946700809122028F5FD4
:1001B0008093220280912202873019F080912202DE
:1001C00001C0882D80932202EA94FFEFCF1ADF0A44
:1001D000EE2021F06894FF24F1F8CBCF9A94992077
:1001E00031F065010F2EF7E0EF2EF02DF3CF739471
:1001F00080910001781628F015C0712C0AE212E0F7
:10020000812C872D90E0880F991F880F991F880FE8
:10021000991F9C01275C3E4F59010F2EF4E69F2E3B
:10022000F02DDFCFDF91CF911F910F91FF90EF90D5
:10023000DF90CF90BF90AF909F908F907F90089568
:100240006F927F928F929F92AF92BF92CF92DF92E6
:10025000EF92FF920F931F93CF93DF930F2EF9E14D
:10026000CF2EF1E0DF2EF02D0F2EF9E36F2EF1E00F
:100270007F2EF02D0AE212E0812C44C0F70180812C
:100280000E947000C5E2D2E08991882321F0289A6B
:100290000E94600003C028980E946000C017D10728
:1002A00099F7BA94B110EACF809122020E94890096
:1002B0000E946700809122028F5F809322028091CA
:1002C0002202873019F08091220201C0882D80938C
:1002D0002202AA94FFEFEF1AFF0AAA2021F06894E5
:1002E000BB24B1F8CBCF9A94992031F076010F2E30
:1002F000F7E0AF2EF02DF3CF88E0C80ED11C6C14C0
:100300007D0429F00F2EF4E69F2EF02DEFCFDF9124
:10031000CF911F910F91FF90EF90DF90CF90BF9002
:10032000AF909F908F907F906F9008956F927F9283
:100330008F929F92AF92BF92CF92DF92EF92FF92F5
:100340000F931F93CF93DF930F2EF1E0CF2EF1E0A9
:10035000DF2EF02D0F2EF9E16F2EF1E07F2EF02D24
:100360000AE212E0812C44C0F70180810E947000F3
:10037000C5E2D2E08991882321F0289A0E9460008A
:1003800003C028980E946000C017D10799F7BA945B
:10039000B110EACF809122020E9489000E9467007A
:1003A000809122028F5F8093220280912202873007
:1003B00019F08091220201C0882D80932202AA9414
:1003C000FFEFEF1AFF0AAA2021F06894BB24B1F8CE
:1003D000CBCF9A94992031F076010F2EF7E0AF2E13
:1003E000F02DF3CF88E0C80ED11C6C147D0429F0E9
:1003F0000F2EF4E69F2EF02DEFCFDF91CF911F91BE
:100400000F91FF90EF90DF90CF90BF90AF909F90B3
:100410008F907F906F9008950E945A001092220250
:100420000E9420010E94A7000E949601F9CFEE0FC2
:0E043000FF1F0590F491E02D0994F894FFCF82
:10043E001D000A00110E000000000A00000E11003F
:10044E0000000A00001F0000001F10101F10101FD8
:10045E0000111B1511111111001E11111E14121174
:10046E00001F10101F10101F00040A11111F111170
:10047E00001E11111E11111E000F10101010100F62
:10048E00000F101010100F04001E11111111111E6B
:10049E00001F10101F10101F001F10101F10101023
:1004AE00000F10101715110F00040F101715110E55
:1004BE00001111111F11111100040404040404048D
:1004CE000004000404040404001010101010110E97
:1004DE000011121418141211001010101010101F09
:1004EE0000111B15111111110011111915131111F4
:1004FE00000E11111111110E000A0E111111110E13
:10050E00001E11111E101010001E11111E141211BA
:10051E00000F10100E01011E000F101E011E040010
:10052E00001F040404040404001111111111110E12
:10053E00000A00111111110E0011111111110A04EE
:10054E00001111111F01011F001F01020408101FCD
:02055E0000009B
:00000001FF
